:020000040800F2
:100000006807002001030008A53700089D37000895
:10001000A13700082D180008214200080000000048
:100020000000000000000000000000001D3A000871
:100030003118000800000000A9370008213A000824
:100040001B0300081B0300081B0300081B03000818
:100050001B0300081B0300081B0300081B03000808
:100060001B0300081B0300081B0300081B030008F8
:100070001B0300081B0300081B0300081B030008E8
:100080001B0300081B0300081B0300081B030008D8
:100090001B0300081B0300081B0300081B030008C8
:1000A0001B0300081B0300081B0300081B030008B8
:1000B0001B0300081B0300081B0300081B030008A8
:1000C0001B0300081B0300081B0300081B03000898
:1000D0001B0300081B0300081B0300081B03000888
:1000E0001B0300081B0300081B0300081B03000878
:1000F0001B0300081B0300081B0300081B03000868
:100100001B0300081B0300081B0300081B03000857
:100110001B0300081B0300081B0300081B03000847
:100120001B0300081B0300081B0300081B03000837
:100130001B0300081B0300081B0300081B03000827
:100140001B0300081B0300081B0300081B03000817
:100150001B0300081B0300081B0300081B03000807
:100160001B0300081B0300081B0300081B030008F7
:100170001B0300081B0300081B030008000000000D
:100180001B0300081B03000800F002F800F0A8F8A9
:1001900014A696E8000CB244B344DA4501D100F04D
:1001A0009FF8BAE80F000FA696E83000A5EB04050B
:1001B00004EB0607AAEB0704A7F101074FEA1515A0
:1001C0004FEA3414A4F10104AC4201D300F088F8E2
:1001D00013F0010F18BFFB1A43F0010300F001F800
:1001E000DBE71847AC4E0000CC4E0000103A24BFAD
:1001F00078C878C1FAD8520724BF30C830C144BF8C
:1002000004680C6070470000704700000023002461
:1002100000250026103A28BF78C1FBD8520728BF16
:1002200030C148BF0B6070476E2900F0E78170292C
:1002300000F02F83662904F07D86652904F07A8614
:10024000672904F07786612904F0768603681B0A23
:1002500028BF41F08001692900F09481642900F0F1
:100260009181752900F08E816F2900F0BD82782977
:1002700000F0FB82E92900F05782E42900F0548263
:10028000F52900F05182EF2900F0BA82F82900F038
:10029000FA820368DB0928BF41F08001632901F07D
:1002A0000480732901F00980E32901F01480F32907
:1002B00001F01980002070471FB504F02EFE01F0F8
:1002C00067F804000020002104F09AFD401C6060E3
:1002D0000020002104F07EFDE0601FBD10B510BDC0
:1002E00001F029F81146FFF7E7FF03F09BFF01F04B
:1002F00005F903B4FFF7F2FF03BC01F04BF900006E
:100300000948804709480047FEE7FEE7FEE7FEE7A9
:10031000FEE7FEE7FEE7FEE7FEE7FEE704480549E5
:10032000054A064B70470000253A0008890100087D
:10033000680100206807002068030020680300208F
:1003400053EA020C00F069802DE9F04B4FF00006F3
:10035000002B1FBFB3FA83F503FA05F424FA05F660
:100360005E4012BF1643B2FA82F502FA05F4C5F1F7
:1003700020051EBF22FA05FC44EA0C04203556EA8B
:10038000044C4FEA144418BF641C4FF000084FF0AF
:100390000009904271EB030C39D3002919BFB1FA5F
:1003A00081F701FA07F6B0FA80F700FA07F6C7F10D
:1003B00020071EBF20FA07FC46EA0C062037B6FBD2
:1003C000F4FCA7EB0507103F07F01F0BCBF120064D
:1003D0002CFA06F60CFA0BFB44BFB3460026202F7E
:1003E000A4BF5E464FF0000B5BEA060C08BF4FF05F
:1003F000010B19EB0B0948EB0608ABFB027C06FB73
:1004000002CC0BFB03CCC01B71EB0C01C1E70B460C
:10041000024641464846BDE8F08B13B5084318BF75
:100420004FF0FF300146AFF30080BDE81C4070473D
:100430007CB51D4616460C00009007D04142A142F3
:1004400002D32044401E01E04FF0FF30064B7B44B6
:100450002A4669460190304600F0E9F8002C02D0A7
:10046000009A002111707CBD030200004FF00002D1
:1004700000B5134694469646203922BFA0E80C509A
:10048000A0E80C50B1F12001BFF4F7AF090728BF75
:10049000A0E80C5048BF0CC05DF804EB890028BFF1
:1004A00040F8042B08BF704748BF20F8022B11F01A
:1004B000804F18BF00F8012B704770477047704796
:1004C00070B5044685690068C10601D5302600E094
:1004D0002026C00707D070BDD4E9012130469047DF
:1004E000206A401C20626D1EF6D570BD70B50446B2
:1004F00085690078C00707D170BDD4E901212020AB
:100500009047206A401C20626D1EF6D570BD0968B8
:100510004A0501D540B27047C905FCD500B2704705
:1005200009684A0501D5C0B27047C905FCD580B23B
:10053000704770B50C460546012A05D0287880061C
:1005400000D5EA69002302E0012305E05B1C934229
:1005500002D2E05C0028F9D1A869E618C01AA861A7
:10056000286A184428622846FFF7AAFF04E0D5E964
:10057000012114F8010B9047B442F8D32846FFF745
:10058000B5FF70BD2DE9F0410646002410687529BD
:10059000314616A510D0FFF7BAFF002802DA404214
:1005A00013A507E031688A0701D512A502E04907C3
:1005B00004D511A5012401E0FFF7B2FF00210A22B2
:1005C00006F1240709E0B0FBF2FCB0FBF2F302FBFA
:1005D0001C00303078541846491C0028F3D12346BB
:1005E0002A463046BDE8F04100F06ABA000000003B
:1005F0002D0000002B0000002000000011680268A0
:10060000006A530501D508700AE0D30501D50880BA
:1006100006E0130603D5C217C1E9000200E0086036
:100620000120704701694A1C02610878704700B5D3
:100630008FB0CDE901310021059105497944CDE91B
:1006400003101146684600F02FF90FB000BD0000FE
:10065000E5FFFFFFD1E900239A4202D2531C0B6051
:10066000107070472DE9FF5F15468A460446DFF893
:10067000AC80F8440027D8E900103E46CDE90010D0
:1006800010E03AF816106A4602A800F030FE411C4D
:1006900007D02178890603D5E269391891420DD82F
:1006A0000744761C2078800602D5E069B84205DD53
:1006B000AE42E6DB3AF816000028E2D1A069C01B82
:1006C000A0612046FFF7FCFED8E90010CDE900103C
:1006D000002017E03AF818106A4602A800F007FE5A
:1006E000B0F1FF3F81460BD000250DF1080B05E06E
:1006F000D4E901211BF8050090476D1C4D45F7D347
:1007000008F10100B0428046E4DB206A38442062F0
:100710002046FFF7EBFE00F003B80000C6480000DB
:100720003FBCBDE8C09F00002DE9F0418046D21DCE
:1007300022F007020025D2E90002F52915A614D0FF
:10074000011E72F1000106DA0023D0EB030063EB17
:10075000020211A608E0D8F800108B0701D50FA6F9
:1007600002E0490701D50EA601251146002408F133
:10077000240704E000F05FF930323A55641C50EA77
:100780000102F7D12B46324621464046BDE8F041F2
:1007900000F096B9000000002D0000002B000000C2
:1007A0002000000030B4002100F1240408E002F031
:1007B0000705D208303542EA4372DB086554491C0C
:1007C00052EA0305F3D10468002310A2250708D5D7
:1007D00004F020040C4304D0C46901230CA2641E5D
:1007E000C46130BC00F06CB910B5044621461068F5
:1007F000FFF796FE02462046BDE810400023D1E7F1
:10080000D21D22F00701D1E90023CBE70000000050
:1008100030000000F0B40D460188090502D5214CD6
:100820007C4402E01F4C7C440E34002100F124067D
:1008300008E002F00F071209E75D42EA03721B09A4
:100840007754491C52EA0307F3D1027800231207B8
:1008500004D5702D06D009B1022311342246F0BC14
:1008600000F02EB901231034F8E770B504460D46A8
:1008700021461068FFF754FE024629462046BDE88F
:1008800070400023C6E7D21D22F00703D3E90023FE
:10089000C0E70368126843F0200303600823C361C4
:1008A0000023B7E7204700002DE9F05F89460446A2
:1008B0004FF0000ADFF874B1FB44C0F820A02046D6
:1008C000E1688847002874D0252806D0D4E90121A2
:1008D0009047206A401C2062F1E700265F462046D0
:1008E000E16888472028054607DB312D05D27819B5
:1008F00010F8200C08B10643F1E7B00701D526F047
:100900000406C4F81CA00027C4F818A02A2D09D09A
:10091000284604F057FA38B304EB8708303DC8F88E
:10092000185019E059F8041B204604EB8702916126
:10093000E1688847012F054618D1E069002820DAD0
:1009400026F020061DE0D8F8180000EB800005EB2B
:1009500040003038C8F818002046E168884705464E
:1009600004F030FA0028EED1012F0AD02E2D08D144
:100970002046E16888477F1C0546022F46F0200686
:10098000C4DBA069002803DA404246F00106A061FA
:10099000F00701D026F010066C2D0BD0682D09D081
:1009A0004C2D39D06A2D35D0742D35D07A2D33D0D9
:1009B00016E038E0E1682F4620468847B8420546F1
:1009C00009D16C2F26D04FF48060E16806432046A1
:1009D0008847054604E06C2F1AD04FF48070064318
:1009E0000DB3A5F14100192802D8203546F4006660
:1009F0004A462946204626604E46FFF715FC80B140
:100A000001280BD0F61D26F0070000F1080956E773
:100A10004020E4E78020D8E70020D6E706F104096B
:100A20004DE7284652E7206A00F002B8B0460000C1
:100A300030BCBDE8C09F30B5B0F10A0271F10003CF
:100A40004FEA900E4EEA817EB0EB0E0061EB910111
:100A50004FEA101E4EEA017E10EB0E0041EB111121
:100A60004FEA102E4EEA016E10EB0E0041EB112101
:100A70004FEA104E4EEA014E10EB0E0041EB1141D1
:100A8000401841F100014FEAD00040EA41704FEABE
:100A9000D1014FEA810444EA907410EB800544EBE5
:100AA00001046D1944EB0404521BA3414FF00003F1
:100AB00048BF0A3200D530BD401C41F1000130BDB5
:100AC0002DE9F0470D4699469246044600F1240868
:100AD0000168880604D5E06921F01001216000E07A
:100AE0000120A84201DD471B00E00027A1697A1917
:100AF00002EB0900081AA0612078C00602D4204643
:100B0000FFF7DEFC002608E0D4E901211AF8060010
:100B10009047206A401C761C20624E45F4DB20780A
:100B2000C0060AD52046FFF7CBFC06E0D4E9012138
:100B300030209047206A401C2062381EA7F1010730
:100B4000F4DC07E0D4E9012118F805009047206A99
:100B5000401C2062281EA5F10105F3DC2046FFF7AA
:100B6000C5FC2078000602D50220BDE8F0870120F0
:100B7000FBE72DE9FF4F0C461E464FF0FF378BB0C9
:100B8000D2E90001DDF860800A908A46C1F30A5577
:100B900005B93D46002108464FF00000BAF1000FAC
:100BA00000F4400005DA00EB80004FF4400101EA58
:100BB00050004FEA9059B9F1010F00DDB9460A988B
:100BC00050EA4A000ED044F61050A5F2FF354543D6
:100BD0002F14B8F1000F1ED07542291E1EDDC9F179
:100BE00000021CE0B8F1010F4FF0000001D03021ED
:100BF00003E0F24305E02154401CB042FBDB3046E9
:100C00000022002121540B99C1F80880C1E900207D
:100C10000FB000F0BCB9BD1B6D1CDEE74A4600DA20
:100C2000694206A800F0F8FB06AB93E8070003ABA7
:100C300083E8070050460A9903F0E4FC8DE80700BA
:100C4000A0F500501F3800900398002D0ADD42F2F5
:100C50001F014A460844002303A90390684603F095
:100C60004DFF09E0A0F500504A461F38002303A9B4
:100C70000390684603F057FF8DE807000004000C5E
:100C800003D04FF0FF30410800E01046B8F1000FEC
:100C900003D00022009215461EE0751E05D4FFF712
:100CA000CAFE303262556D1EF9D5B34601220843A3
:100CB00002D000227F1C04E02078302801D10022DD
:100CC0007F1E002A099784D01DE0112D07DAFFF757
:100CD000B2FE303262556D1C50EA0102F5D1084374
:100CE00002D00098C8B10EE00021681E05E0235C28
:100CF000625C63542254401E491C8142F7DBAB46C0
:100D0000A81B401E0990002004F80B000B98099ABC
:100D1000C0F80880C0E9002B7AE711264FF00008E0
:100D200057E72DE9F04F88460446D21D22F007010F
:100D300091B0D1E90001CDE90A0104F02BF8024697
:100D40000B98C00F01D02D2007E02068810701D546
:100D50002B2002E0202101EAC000032A099001D0E3
:100D6000072A05DB03464146204600F015FB0BE150
:100D70002078800601D5E06900E00620B8F1650F13
:100D8000814606D0B8F1660F18D0B8F1670F70D160
:100D900031E00020B9F1110F009001DB112301E0D7
:100DA00009F101030AAA01A90CA8FFF7E2FEDDE997
:100DB0000C70002609F10105834647E001204B46EF
:100DC00000904FF000470AAA01A90CA8FFF7D1FE36
:100DD000DDE90DB00C995D46002610B909F101005E
:100DE0000D18B9EB050003D4C0F1FF3609F1010578
:100DF000A5EB09002BE0B9F1010F01DA4FF0010971
:100E00000020B9F1110F0090484601DD112300E0E8
:100E100003460AAA01A90CA8FFF7ABFEDDE90C7096
:100E20004D4600268346207800070AD4AB4500DAF9
:100E30005D4601A8012D04DD411911F8011C30297E
:100E400007D04F4502DA17F1040F04DA0120824679
:100E50000FE06D1EEEE7002F02DCED1B3E4403E0C9
:100E6000781CA84200DD7D1CB81B00F1010A4FF080
:100E700000472078000703D4AA4501DB4FF0FF3A72
:100E80000021B7F1004F0DF143088DF8431024D035
:100E900002202B23002F01DA7F422D230A21021E7C
:100EA000A0F1010000DC5FB197FBF1FC97FBF1F2D0
:100EB00001FB1C7C17460CF1300C08F801CDEEE765
:100EC000A8F1010003702188090501D5452100E042
:100ED0006521A0F1010800F8011C09980FA9A1EBF8
:100EE0000807FF1D00B10120411901EBEA70A1695B
:100EF0003844081A401EA0612078C00602D420465B
:100F0000FFF7DEFA099828B1D4E901219047206A59
:100F1000401C20622078C00622D52046FFF7D0FA78
:100F20001EE0002E04DBB34502DD01A8805D00E079
:100F30003020D4E901219047206A401C2062761CB1
:100F4000AAF101005FEA000A0AD100F021FAC068A4
:100F50000168405CD4E901219047206A401C20626E
:100F6000281EA5F10105DCDC07E0D4E9012118F811
:100F7000010B9047206A401C2062381EA7F1010730
:100F8000F3DC2046FFF7B2FA032011B041E630BC93
:100F9000BDE8C08F2DE9F04F04460D46D21D22F06A
:100FA000070089B0D0E900974846394603F0F2FEC1
:100FB0000246F80F01D02D2307E02068810701D5F4
:100FC0002B2302E0202101EAC0038DF820300BB171
:100FD000012000E00020032A824601D0072A04DB1A
:100FE0002946204600F0D8F93FE12078800601D458
:100FF0000D2500E0E569C7F30A560D2D49DA0021F9
:101000004FEA175B08464FF00000002F00F4400045
:1010100007DA00EB80004FF4400100EBD07001EAEA
:1010200060008115012901DD4FF0FF3100224FEAF8
:10103000850CBCF1180F06D31346ACF118004FF025
:101040008052C24003E04FF4801323FA0CF30CF1FA
:101050000C0CBCF1200F04D3ACF1200C09FA0CF0FD
:1010600001E007FA0CF000294FF0004801DD18B943
:101070000FE00ED140450CD319EB02095F4121B9B5
:10108000404502D19F4329EA0209BBEB175F00D01C
:10109000761C2088000502D57B48784402E07A4817
:1010A0007844193808AA302302F80A30037C0AF180
:1010B0000101002E0AF1020A53546A4602DC4FF085
:1010C000300101E04FF031014FF001088DF80010C0
:1010D00002D0A6F2FF3603E059EA470100D06B4E7A
:1010E000002D02DC2178090704D54FF002082E21DB
:1010F0008DF80110C44600210BE0C7F303433F0104
:10110000C35C491C6D1E02F80830052908F101086E
:1011100001DA002DF1DC00210CE000EB1973491C11
:101120001B786D1E082902F808304FEA091908F1EA
:10113000010801DA002DF0DC21688B0602D516E0EB
:10114000A8F10108E04505DD02EB080313F8013CB6
:10115000302BF5D0B8F1000F09DD02EB080313F8CE
:10116000013C2E2B03D1090701D4A8F10108002D61
:1011700005DD3E2102F808106D1E08F10108407CD3
:10118000002E02F8080008F1010804DA2D2076424A
:1011900002F8080002E02B2002F808000A214FF4B0
:1011A0007A70864208F101080BDB96FBF0F33033CE
:1011B00002F8083096FBF0F308F1010800FB136613
:1011C00001E0642E0CDB642096FBF0F3303302F870
:1011D000083096FBF0F308F1010800FB136601E00C
:1011E0000A2E06DB96FBF1F0303002F8080008F119
:1011F000010896FBF1F001FB1060303002F80800A6
:10120000A16908F1010808EB050202EB0A00081ABF
:10121000A0612078C00602D42046FFF751F9216A68
:1012200008AE01EB0A00206204E0D4E9012116F8BF
:10123000010B9047BAF1010AF7D22078C00602D517
:101240002046FFF73DF96E4609E016F8010B3E28EF
:101250000FD0D4E901219047206A401C2062B8F1E8
:101260000108F2D22046FFF741F909B0032000F04F
:101270000FB8206A2844206203E0D4E9012130201D
:1012800090476D1EEBD3F8E7F23E000002FCFFFF33
:1012900030BCBDE8C08F10B5436913B1AFF3008017
:1012A00001E0FFF746F9012010BD127800F124019A
:1012B0000A7000224A700122EDE711684FF0FF32F8
:1012C000E9E710B5436913B1AFF3008001E0FFF720
:1012D000C9F9012010BD128800F124018284002286
:1012E000C2840122EDE711684FF0FF32E9E72DE9F2
:1012F000F04116460C46054600F042F8036893F8A4
:101300000101012807D0FF2C12D8185D80B10120FF
:101310002C70BDE8F081D3F807013246214603F274
:101320000713C7182846BC46BDE8F04100236047B4
:101330004FF0FF30EDE7754600F0EAF8AE460500E5
:101340006946534620F00700854618B020B5FEF7E1
:10135000E5FFBDE820404FF000064FF000074FF0DA
:1013600000084FF0000BAC46ACE8C009ACE8C0097F
:10137000ACE8C009ACE8C00921F007018D46704710
:1013800010B500F005F8001D10BD00BF753A000053
:1013900000487047300000202DE9F0411F46044608
:1013A00003260168072A01F4006004DB08B116A5D2
:1013B00005E016A503E008B115A500E015A521F08C
:1013C00010002060A069C01EA0610FB1401EA06186
:1013D0002046FFF775F84FB1D4E901213846904710
:1013E000206A401C2062C01C206206E0206AFAE7E6
:1013F000D4E9012115F8010B9047761EF8D220465A
:10140000FFF774F8BDE8F0814E414E006E616E004A
:10141000494E4600696E66002DE9F0478146164642
:101420008AB0354878440DC88DE80D0032487844BC
:10143000801C03AC0DC884E80D0041F69B300844C5
:10144000372190FBF1F290FBF1F5A5F1800501FB4E
:1014500012041B3C02D56442012000E00020DFF8AA
:1014600098A080460027FA44AAF1BE0A0EE0E007E1
:101470000AD03246684607EB470101230AEB810197
:1014800003F051FB8DE8070064107F1C002CEED1A7
:10149000194F7F44AE3F19E0E80715D007EB041061
:1014A0000DF1180A90E80E008AE80E00C068F042BC
:1014B00001D1981908903246012306A903A803F028
:1014C00032FB03AB83E807006D10641C002DE3D1F1
:1014D0004FF0010332466946B8F1000F03A802D06D
:1014E00003F00CFB01E003F01EFBC9E90001C9F8A1
:1014F00008200AB0BDE8F087F83B000010B50446AC
:10150000AFF300802046BDE81040FEF7F2BE0000B9
:10151000004870471000002030B44FF0013C50F8F4
:10152000042B51F8043BCCFA52F4D51A20D1FCB963
:1015300050F8042B51F8043BCCFA52F4D51A17D1C9
:10154000B4B950F8042B51F8043BCCFA52F4D51A34
:101550000ED16CB950F8042B51F8043BCCFA52F47C
:10156000D51A05D1002CDAD030BC4FF000007047FE
:1015700029BAB1FA81F111F01801D1F120008440AB
:10158000F2D1CA40CB4012F0FF0213F0FF0330BC8F
:10159000D01A704701491820ABBEFEE726000200B2
:1015A0007047000070B5044600688268836802F0E6
:1015B000040203F00803D21800F0BA80C268920156
:1015C0006ED5627E012A6BD1227E012A68D1016824
:1015D000490661D40121CAF24031026852065BD447
:1015E0000268520658D4026852065CBF02685FEA7D
:1015F000426251D4026852065CBF02685FEA4262EE
:101600004AD4026852065CBF02685FEA426243D471
:10161000026852065CBF02685FEA42623CD402681C
:1016200052065CBF02685FEA426235D40268520625
:101630005CBF02685FEA42622ED4026852065CBF59
:1016400002685FEA426227D4026852065CBF026801
:101650005FEA426220D4026852065CBF02685FEA19
:10166000426219D4026852065CBF02685FEA4262B5
:1016700012D4026852065CBF02685FEA42620BD471
:10168000026852065CBF02685FEA426204D41B39FA
:1016900044D002685206A0D540210160012105E036
:1016A000022903D10221082612E000BF82685207F6
:1016B0000AD58268920707D482684FF6C073C7F6CE
:1016C000FF731A401032826001294FF0040610D0D7
:1016D000826812070AD58268920707D482684FF69B
:1016E000C073C7F6FF731A4020328260032908BF17
:1016F0000C2600F087FE21688968314218D0054623
:1017000003E000BF8068304212D000F07BFE411B36
:1017100020680629F6D381683142F3D0606D40F02D
:1017200010006065A06D40F00100A065012070BD53
:10173000002070BD70B582B0044600200190216881
:101740008A68D20711D14FF6C076C7F6FF7688684F
:1017500006F17F0210420BD0606D40F01000606512
:10176000A06D40F00100A065012002B070BD00BF77
:101770008868304040F00100886040F20830C5F2CF
:1017800004000068000221D400F03CFE21680A68D1
:10179000D20717D1054602E00868C00712D1886851
:1017A000C00704D18868304040F00100886000F034
:1017B00029FE401B21680328EED30868C007EBD13F
:1017C000CAE700BF002002B070BD00BF40F20800B1
:1017D000C2F20000006842F663518009C0F23E5137
:1017E000A0FB0101880900EB40000C2101EB800007
:1017F000019001980028C7D0019801380190019804
:101800000028C1D001980138019001980028BBD070
:1018100001980138019001980028B5D0019801384D
:10182000019001980028E7D1AEE70000FEE7000034
:1018300070470000EFF3108072B600BFFEE70000B3
:1018400090F85020012A04BF0220704770B582B082
:10185000002340F2083201930093C5F204020368AA
:10186000A2F54274A3422FD14FF6006E4FF60055F9
:10187000CFF6FF7ECFF6FF7552F80E405359234343
:101880005B0721D4D1F800C01368BCF1000F23F42A
:10189000604427D04B6890F8306043EA46332343D6
:1018A0001360535952F80E606FF0FF0555593343DA
:1018B0002B43DB0726D1136840F61F768968B343B4
:1018C000194341EA0C011CE0416D41F020014165E2
:1018D0000121002280F8502002B0BDE87040084687
:1018E000704700BF1460515952F80E306FF0FF0678
:1018F000965919433143C90704D1116840F61F7343
:10190000994311600021E4E7F0B581B00022009214
:1019100090F85020012A03D10221084601B0F0BD01
:101920000123076880F85030BB685B0700F19A809C
:101930004B68052B06D8023B032B9ABFC9A555F867
:1019400023300623C3F3012407EB84040D68226BC4
:1019500003F01F031F269E40B243C5F3846606FAB8
:1019600003F31A432263BA68BB6802F0040203F06F
:101970000803D21840F091800A688B68C2F3406671
:1019800007EB86067569C2F3045207249440A54309
:1019900003FA02F22A437261D1E90435FC68042B90
:1019A00066D13A6E3A6E0B68C2F3846293FAA3F67C
:1019B000C3F3846C6FF3DF43B6FA86F5002B2C4635
:1019C0004FF6FF7E08BF6446A242C0F2070E0CD15C
:1019D0003A6E22F000423A660A6802EA0E03C2F347
:1019E000846C92FAA2F2B2FA82F57A6E7A6E002BC9
:1019F000C2F384622C4608BF6446A2420CD17A6EC0
:101A000022F000427A660A6802EA0E03C2F3846C8E
:101A100092FAA2F2B2FA82F5BA6EBA6E002BC2F353
:101A200084622C4608BF6446A2420CD1BA6E22F0F2
:101A30000042BA660A6802EA0E03C2F3846C92FAA4
:101A4000A2F2B2FA82F5FA6EFA6E002BC2F3846249
:101A500008BF6546AA4220D1FA6E22F00042FA661B
:101A60001BE000BF416D41F0200141650121F2E022
:101A7000062202EA94020E6807EB830305FA02F2DB
:101A80001D6E4FF20004C0F2FF3406F0F846254008
:101A900032432A4342F000421A66BA680D68D20700
:101AA00050D1CA68D7F8B0602B466FF3DF4326EAFF
:101AB000030C4FF6FF7602F01804C0F20706E6406A
:101AC00000242E40C4F27F0446EA0C06A242C7F866
:101AD000B06037D193B195FAA5F2B2FA82F2013231
:101AE00002F01E03092B02F01F0310D801229A40B6
:101AF00003EB430342EA035315E000BF012202EB6C
:101B0000956202F01E030A2B02F01F03EED301229E
:101B100000269A4003EB4303CFF6206606EB0353FF
:101B20001A4342F00073C3F3406607EB86068A68E7
:101B30007569C3F3045307249C40A5439A402A4384
:101B400072610D680021C8F208010D4200F0828028
:101B500040F2083CC5F2040CDCF800400021CCF255
:101B600052718D4204F0E07E08BF14F4000119D0D8
:101B70000021CCF684318D4254D10021B1EB1E6F8F
:101B800050D140F2002247F40071C5F204029142A4
:101B900060D1DCF8001021F0E07141EA0E0141F063
:101BA000807155E040F2002247F40071C5F2040252
:101BB00091424FD1DCF8001042F6635221F0E071FF
:101BC00041EA0E0141F40001CCF8001040F2080196
:101BD000C2F200010968C0F23E528909A1FB02125B
:101BE000910901EB41010C2202EB81010091009966
:101BF00081B3009901390091009959B300990139D5
:101C00000091009931B3009901390091009909B30D
:101C1000009901390091009900294FF00001E8D1A5
:101C200019E000BFACF542718F424FF0000112D1B4
:101C30000122C8F20002954208BF14F480020AD1C2
:101C4000DCF8001021F0E07141EA0E0141F480015E
:101C5000CCF800100021002280F85020084601B086
:101C6000F0BD00BF0C0000001200000018000000D2
:101C7000000100000068006C70470000B0B582B041
:101C80000446002001904CB1606D58B1216888680D
:101C9000800012D48868C00019D54CE0012002B041
:101CA000B0BD00BF204600F0F3F80020A06584F826
:101CB0005000216888688000ECD588684FF6C072B3
:101CC000C5F6FF72104088608868C00033D44FF6B4
:101CD000C0728868C5F6FF7202F18052104000F1B0
:101CE0008050886040F20800C2F20000006842F6AE
:101CF00063528009C0F23E52A0FB02029009022208
:101D000002EB400001900198A8B100BF0198013892
:101D10000190019878B1019801380190019850B173
:101D2000019801380190019828B10198013801907B
:101D300001980028EAD18868C00009D4606D40F09D
:101D400010006065A06D40F00100A065012000E07A
:101D500000208A68636D02F0040203F01003D218B9
:101D6000626D7BD122F48172023262658A68D20789
:101D700020D140F2083C4FF600534FF60062C5F206
:101D8000040CCFF6FF73CFF6FF725CF803E05CF84B
:101D900002206FF0FF035CF8033042EA0E021A43A0
:101DA000D20707D16268DCF8003023F47C131A43B1
:101DB000CCF8002094F819E0636BD4E902C243EA3E
:101DC0004E331A4394F8203042EA0C02012B42EAC7
:101DD000034207D1D4F824C00023CFF6FE7303EBEF
:101DE0004C431A43A36A33B1D4F82CC003F4707384
:101DF00043EA0C031A43D1F80CC04CF20703CFF6A8
:101E0000F07303EA0C031A43CA608A6812072ED4DF
:101E100094F83030227E5B0094F838C043EA823E6A
:101E2000CB6844F2020223EA020242EA0E02CA60CE
:101E30000A69BCF1010F17D140F2FD7322EA030CCD
:101E4000D4E90F32D4E911E543EA0C031A4342EA1C
:101E50000E022A4342F0010208E000BF42F01001E6
:101E60000120616502B0B0BD22F001020A61226961
:101E70000B6B012A23F00F0202D1E369013B1A43E5
:101E80000A63616D012262F30101616502B0B0BDB8
:101E900010B5A8B004460020CDE9260001A82030E6
:101EA0006821FEF7E3FA20680021C5F204018842A8
:101EB00002D028B010BD00BF4FF4804001904FF019
:101EC000805008211F900220049107210290CDE943
:101ED000051007904FF080700124089001A803942A
:101EE00000F086FB002818BFFFF7A4FC41F24C006D
:101EF000C4F20200016841F400510160016801F47C
:101F0000005100910099016841F0010101600068F1
:101F100023A900F00100009000980B2024900020DD
:101F200025904FF09040239400F078F928B010BD30
:101F30002DE9F04740F208390446C5F20409D9F802
:101F40000000D4F814800D46B8F1080F00F01F0A05
:101F500002D1082712E000BFBAF1090F00F2848015
:101F6000012000FA0AF040F22121084200F07C80B2
:101F70002068C068C00740F07D80042700F042FA66
:101F800021680A683A423DD0606D40F40070606597
:101F9000C86810F4406F0FD1607E68B90868000708
:101FA0000AD5606D20F480706065606DC00403D454
:101FB000606D40F001006065A9F50270814208463D
:101FC00008BFA9F542700246BAF1090F08BF0A46D8
:101FD000BAF1050F08BF0A46BAF1000F08BF0A465A
:101FE000884208BF0246D068B8F1080F02D1082025
:101FF00003E000BF400401D40C2008600020BDE8CD
:10200000F08700BF0646681C2AD065B900F0FAF9CF
:102010002168086838420FD008683842F6D0B3E724
:1020200008683842B0D100F0EDF9801B2168A84261
:10203000F6D908683842F3D1606D40F0040060655D
:10204000002084F850000320BDE8F087086838427B
:102050009AD10868384297D1086838427FF494AF23
:1020600008683842F2D08FE7D9F8000010F4604FCA
:102070003FF483AF606D40F0200060650120BDE853
:10208000F087000070B50025C5F204050446D5F8B8
:10209000086300688068400703D494F85000012862
:1020A00002D1022070BD00BF012084F850002046FC
:1020B000FFF740FB20B1002084F85000012070BDE4
:1020C0002068626D40F601739A4302F5807305F54E
:1020D0008072904218BF05462A1AB2FA82F206F0C0
:1020E0001F015209636500D119B9636D23F4801390
:1020F0006365666D0023F6044FF0000644BFA66DCD
:1021000026F00606A6651C26066084F8503042B903
:10211000092919D8012202FA01F140F221221142C3
:1021200012D0C168890104D5616D012262F30D31BD
:10213000616581684FF6C072C7F6FF7211400431C5
:102140008160002070BD00BF606D40F4801060654C
:10215000E86880015CBF002070BD606D012161F303
:102160000D306065002070BDB0B5044690F8500099
:10217000012804BF0220B0BD01252046032184F8B8
:102180005050FFF70FFA28B1002084F8500028467D
:10219000B0BD00BF206881688268D20717D011F0F7
:1021A000020114D1816801F00D01012926D1816855
:1021B0004FF6C072C7F6FF721140023181600321F1
:1021C000016000F01FF921688968C90708D120461D
:1021D00050F8541F41F201129143002516E000BF50
:1021E000054602E08068C007F1D000F00BF9411B02
:1021F00020680329F6D38168C907F3D0606D0125F3
:1022000040F010006065204650F8581F41F0010171
:102210000160002084F850002846B0BD2DE9F04F41
:1022200082B00D68002D00F0DB8000F13847860594
:1022300046EA972741F60006C4F600060722B04298
:1022400008BF0622062F38BF3A464FF0000B002782
:10225000002600920AE000BF0D68013635FA06F24A
:1022600007F102070BF1040B00F0BA80012202FA19
:1022700006FE15EA0E08EFD0D1F8049009F0030A23
:10228000AAF10105022D15D20323826803FA07F58E
:10229000CB68AA43BB401A4382604268C9F300136B
:1022A00022EA0E02B3404FEA460CEC431A43426066
:1022B00017E000BFBAF1030F0ED1C56AC9F3C0021F
:1022C00025EA0E05B2402A434FF0030AC2620AFA19
:1022D00007F2D443BC4625E0032202FA07F5EC439B
:1022E000BC46C2688B68224003FA0CF31A43BAF169
:1022F000020FC26016D16FF0030202EA56020244D6
:102300000BF01C050F23D2F820E003FA05F90B6946
:102310002EEA090EAB4043EA0E031362D1F8049093
:1023200009F0030A02680AFA0CF322401A4319F46E
:10233000403F026090D041F26003C4F202031A6889
:1023400040F2004E42F001021A601A68C4F2010E17
:1023500002F001020192019A26F003024FF60849A9
:102360007244CFF6FF7952F809C00BF00C050F2329
:10237000009CAB402CEA030304FA05F52B4342F81A
:102380000930DEF808204B6842EA080540F20C4CA0
:10239000DC0258BF22EA0805CEF80850C4F2010C4E
:1023A000DCF800209C0242EA080558BF22EA080532
:1023B000CCF80050DEF804209C0342EA080558BF20
:1023C00022EA0805CEF80450DEF80020DB0342EADA
:1023D000080558BF22EA0805CEF800503CE700BFC8
:1023E00002B000F000B830BCBDE8C08F0069084002
:1023F00018BF0120704700001823002A08BF2823B7
:10240000C150704740F26410C2F20000006870478B
:1024100040F2000040F26411C2F20000C2F200017A
:1024200000780A68104408607047000080B542F2E6
:102430000000C4F20200016841F4807101600320D1
:1024400000F078F8002000F009F800281CBF0120F7
:1024500080BD00F029F8002080BD000070B540F27A
:102460000006C2F200063178E1B1044640F20800ED
:10247000C2F200004FF47A720068B2FBF1F1B0FBD7
:10248000F1F001F03BF80F2C4FF0010508D838B9F6
:102490004FF0FF3021460022002500F01FF8746045
:1024A000284670BD012070BD82B041F25800C4F2D0
:1024B0000200816841F001018160816801F0010141
:1024C00001910199016841F080510160006800F0BC
:1024D00080500090009802B07047000010B54EF692
:1024E0000C5CCEF2000CDCF80030C3F3022E8EF050
:1024F0000704042C28BF0424BEF103034FF0FF3E61
:102500000EFA04F438BF0023A14399400EFA03F3F6
:102510009A43114300F00F0200F160430901043AAD
:1025200003F564436244002848BF02F10C031970AC
:1025300010BD00004EF60C51CEF200010A684FF6B5
:10254000FF031A4060F30A2242F0806040F0FD7001
:102550000860704747F20001C4F200010A68B0F554
:10256000007F02F4C06031D1B0F5007F2CD0086844
:10257000012262F34A20086040F20800C2F2000023
:102580000068322250434DF68362C4F21B32A0FB36
:102590000202900C4A69520511D5421C0FD04A69BB
:1025A00052050CD558B14A69520508D5012806D004
:1025B0004A69520503D50228A0F10400EAD148690E
:1025C000400544BF0320704700207047B0F5806F7E
:1025D000FAD00868022262F34A200860002070479F
:1025E00047F20000C4F20000006800F4C0607047C9
:1025F0002DE9F04782B00446407841F28807000791
:10260000C4F2020730D5606E4FEAB05103290BD8EF
:10261000DFE801F002101C25201D002101F0C6F8A2
:10262000064670B91AE000BF01266078C0060BD5D7
:102630001EE000BF04F12000002101F05FF9064612
:1026400060B16078C00613D4B2464EE057F87C1CE7
:1026500041F4803147F87C1C01E000BF606E3968AE
:1026600021F440010843386000266078C006EBD5AD
:10267000A06E4FEA306003280AD8B246DFE800F0C7
:1026800002102216201D002101F090F80DE000BF7D
:102690004FF0010A4FF00108A07880070DD528E01F
:1026A00004F12000002101F029F98246BAF1000F5F
:1026B000D04612D0A07880071BD4C2462168C80734
:1026C00068D088E057F87C0CB24640F4803047F878
:1026D0007C0CBAF1000FD046ECD13868A16E20F026
:1026E000407008434FF0000A3860B046A078800779
:1026F000E3D557F8300C5FEAC0090BD457F8300C1B
:1027000040F0805047F8300C57F8300C00F0805003
:102710000190019847F20005C4F20005286840F4D2
:1027200080702860FFF76EFE064600BF2868C0056F
:1027300008D4FFF767FE801B0228F7D94FF0030A81
:1027400022E000BFBAF1000F1ED1B86810F440704B
:1027500012D0D4F8841088420BD0B868B96820F43D
:10276000407041F48031B960B96821F48031B960BA
:10277000B860C00740F01C81B868D4F8841020F419
:1027800040700843C246B860B9F1000F1AD52168FD
:10279000C80720D1880726D448072CD4080732D48C
:1027A000C80638D488063ED4880544D448054AD49F
:1027B000480650D4080656D4C8055CD4880462D4B0
:1027C00073E000BF57F8300C20F0805047F8300C11
:1027D0002168C807DED03868A26B20F003001043E0
:1027E00038608807D8D53868E26B20F00C001043B9
:1027F00038604807D2D53868226C20F0300010438A
:1028000038600807CCD53868626C20F0C0001043EF
:102810003860C806C6D53868A26C20F440701043F2
:1028200038608806C0D53868E26C20F440601043F8
:1028300038608805BAD53868E26D20F4402010432E
:1028400038604805B4D53868226E20F44010104333
:1028500038604806AED53868226D20F440501043E9
:1028600038600806A8D53868626D20F440401043EF
:102870003860C805A2D53868A26D20F440301043F6
:102880003860880411D53A68E06E22F04062024355
:10289000B0F1806F3A601DD0B0F1006F05D157F8EC
:1028A0007C0C40F4801047F87C0C080326D53A686D
:1028B000206F22F040620243B0F1806F3A6015D081
:1028C000B0F1006F1AD157F87C0C40F4801047F833
:1028D0007C0C13E0201D012100F068FF2168002816
:1028E00018BF82460803E2D408E000BF201D012182
:1028F00000F05CFF2168002818BF8246480311D50C
:102900003A68606F22F040620243B0F1806F3A6033
:102910001CD0B0F1006F05D157F87C0C40F480104A
:1029200047F87C0C480425D53968A06F21F0405148
:102930000143B0F1005F396014D0B0F1805F19D16C
:10294000201D022100F032FF11E000BF201D0121F7
:1029500000F02CFF2168002818BF82464804E3D409
:1029600008E000BF04F12000022100F0C7FF0028AA
:1029700018BF82462068010406D4C0030CD4504618
:1029800002B0BDE8F08700BF3968E26F21F08041F6
:1029900011433960C003F2D53868D4F8801020F0B4
:1029A000004008433860504602B0BDE8F08700BFE1
:1029B000FFF728FD064641F288354FF0030A00BFB5
:1029C000B86880073FF5D8AEFFF71CFD801BA84212
:1029D000F6D9D9E62DE9F04381B000286BD042F258
:1029E0000008C4F202080446D8F800000D4600F0C2
:1029F000070088420CD2D8F8000020F007002843D6
:102A0000C8F80000D8F8000000F00700A84252D132
:102A1000206841F2080910F00201C4F202090DD049
:102A2000A268D9F8003003F0F0039A4206D9D9F829
:102A3000003023F0F0031A43C9F80020C2072DD15B
:102A400069B1A168D9F8002002F0F002914206D2E3
:102A5000D9F8002022F0F0021143C9F80010D8F88C
:102A6000001001F00701A9420CD9D8F8001021F09C
:102A700007012943C8F80010D8F8001001F0070139
:102A8000A94218D141071BD4000723D4D9F800006C
:102A9000D9F8041010F00C002CD131E06068002847
:102AA0005ED0022800F07E80032840F0818059F833
:102AB000081C890158D4012001B0BDE8F08300BF93
:102AC000D9F80010E26821F4E0611143C9F8001060
:102AD0000007DBD5D9F80000216920F4605040EAF6
:102AE000C100C9F80000D9F80000D9F8041010F0AE
:102AF0000C0005D00C2829D101F00301012925D1B2
:102B000059F8081C090703D4D9F88C10090A02E007
:102B100059F8081C090945F2500201F00F01C0F6EE
:102B2000000252F8211000280A4618BF00220C2883
:102B300071D1D9F8040000F00300022846D0032820
:102B400004BF41F20021C0F27A0143E0042857D0CB
:102B500008285BD141F20022C0F27A025BE000BF9C
:102B600059F8081C8907A6D5D9F8001021F00301EF
:102B70000843C9F80000FFF745FC064641F28837D4
:102B8000D9F80000616800F00C00B0EB810F15D09F
:102B9000FFF738FC801BB842F2D9032001B0BDE832
:102BA000F08300BF59F8081C89037FF584AFDBE789
:102BB00059F8081C49057FF57EAFD5E7206800F07D
:102BC000020100297FF43DAF49E700BF42F2004116
:102BD000C0F2F401D9F80400D9F80420C0F30210BF
:102BE000C2F306225143D9F804200130B1FBF0F0C2
:102BF000C2F34161022202EB4101B0FBF1F20AE0B3
:102C000042F20042C0F2F40205E000BF00220021BF
:102C10000C283FF48EAFD9F8000045F23801C0F31C
:102C20000310C0F60001085C00F01F0022FA00F15A
:102C300040F20400C2F2000040F208020068C2F252
:102C40000002116001B0BDE8F043FFF707BC0000CF
:102C500040F2080041F20801C2F20000C4F2020191
:102C60000068096845F24802C1F30221C0F600027B
:102C7000515C01F01F01C8407047000040F208009D
:102C800041F20801C2F20000C4F2020100680968C2
:102C900045F24802C1F3C221C0F60002515C01F0C6
:102CA0001F01C8407047000041F20C01C4F202014C
:102CB00051F8040C10F00C02086805D00C2A29D138
:102CC00000F00300012825D151F80C0C000703D4B3
:102CD000D1F88800000A02E051F80C0C000945F216
:102CE000500300F00F00C0F6000353F82030002A14
:102CF000184618BF00200C2A18BF7047086800F05B
:102D00000300022810D0032804BF41F20023C0F2C0
:102D10007A030DE0042A1FD0082A23D141F20020B3
:102D2000C0F27A00704700BF42F20043C0F2F403E1
:102D300008680A68C0F30210C2F30622096801306D
:102D40005A43B2FBF0F0C1F34161022202EB4101B0
:102D5000B0FBF1F0704700BF42F20040C0F2F40057
:102D6000704700BF00200023C5E70000002804BF13
:102D7000012070472DE9F04383B041F2000604467C
:102D8000C4F20206B068F168227800F00C09D0069F
:102D900001F003081ED42078C00700F08880B9F144
:102DA000080F00F07D80B9F10C0F08BFB8F1030FD8
:102DB00076D06068B0F5803F07D0B0F5A02F40F026
:102DC0002382306840F480203060306840F48030E6
:102DD000306024E2B9F1000F1CD0B9F10C0F08BF2C
:102DE000B8F1010F16D0A1693068002900F0B88150
:102DF00040F001003060FFF705FB054630688007B2
:102E000000F1C081FFF7FEFA401B02284FF00300DB
:102E1000F4D92AE33068800703D5A069002800F0C0
:102E2000BD82256A3068000700F12A81D6F8940037
:102E3000000900F0F000854200F228813068B9F105
:102E4000000F40F008003060306820F0F00040EAE9
:102E5000050030607068E16920F47F4040EA01209D
:102E6000706040F08882B06DC00000F12582B06DC6
:102E700040F08050B065B06D00F080500290029834
:102E8000FFF7AEFBB16D21F08051B165B0F5007F69
:102E900000F01882802D40F2558203205DE200BFD1
:102EA0003068800303D56068002800F077822078BE
:102EB00080072DD5B9F1040F1CD0B9F10C0F08BF54
:102EC000B8F1020F16D0E1683068002900F0B68131
:102ED00040F480703060FFF795FA05463068400591
:102EE0000FD4FFF78FFA401B02284FF00300F5D9EB
:102EF000BBE200BF3068400503D5E068002800F061
:102F00004D827068216920F0F85040EA01607060DD
:102F1000207800075ED42078400775D4A06A002886
:102F200000F0E882022840F0E380F068E16A00F0F7
:102F300003028A4240F0F480226B6FF00F0300F02E
:102F4000700103EB0212914240F0EA80616B00F4E1
:102F5000FE42B2EB012F40F0E380A16B00F400329F
:102F6000073918BF01218A4240F0DA80E26B002362
:102F7000CFF6E07303EA025200F4C001A2F500129A
:102F8000914240F0CD80216C4FF07E4202EA016117
:102F900000F0C06001F17E41884240F0C18030689D
:102FA000800100F1A782306840F080703060F068E6
:102FB00040F08070F060FFF725FA04463068800129
:102FC00000F19882FFF71EFA001B02284FF0030061
:102FD000F4D94AE26169D6F89400002972D040F031
:102FE0000100C6F89400FFF70DFA0546D6F89400E4
:102FF000800790D4FFF706FA401B0228F6D9032079
:1030000003B0BDE8F08300BFB06D5FEAC00808D42C
:10301000B06D40F08050B065B06D00F08050009011
:10302000009847F20007C4F200073868C00513D4BF
:10303000386840F480703860FFF7E4F9054600BF57
:103040003868C00508D4FFF7DDF9401B02284FF0AF
:103050000300F5D909E200BFA068012808D00528BF
:1030600040F0B080D6F8900040F00400C6F8900020
:10307000D6F8900040F00100C6F89000B1E000BF23
:10308000306800F0F00085427FF6D8AEB06DC00029
:1030900000F18A80B06D40F08050B065B06D00F0F6
:1030A000805001900198FFF79BFAB16D21F080519B
:1030B000B165B0F5007F00F07D80802D40F2D080BA
:1030C0000320D8E020F00100C6F89400FFF79AF939
:1030D000054600BFD6F8940080077FF51CAFFFF7C8
:1030E00091F9401B02284FF00300F3D9BDE100BF66
:1030F000B9F10C0F00F05281306820F08070306020
:10310000FFF780F9044600BF3068800140F1E2809B
:10311000FFF778F9001B02284FF00300F4D9A4E16F
:10312000B9F10C0F00F03A813068400100F13681AE
:103130003068C00000F13281306820F0807030606B
:10314000FFF760F905463068800140F19181FFF793
:1031500059F9401B02284FF00300F4D985E100BF64
:1031600020F001003060FFF74DF905463068800718
:103170007FF511AEFFF746F9401B02284FF0030020
:10318000F4D972E1306840F0080030603068D4E96A
:10319000071220F0F00010433060706820F47F4088
:1031A00040EA01207060F6E5FFF71AFAB0F5007FFB
:1031B0007FF483AF812D5DD30120A02D88BF022035
:1031C00059E000BFD6F89010002821F00101C6F8A0
:1031D0009010D6F8901021F00401C6F8901000F07D
:1031E0008580FFF70FF9054641F28837D6F8900041
:1031F000800700F18D80FFF705F9401BB842F5D933
:10320000032003B0BDE8F0833168002821F4803149
:103210003160316821F48021316000F08380FFF754
:10322000F1F80546306880033FF541AEFFF7EAF854
:10323000401B64284FF00300F4D916E120F480709D
:103240003060FFF7DFF80546306840057FF560AE77
:10325000FFF7D8F8401B02284FF00300F4D904E12F
:10326000A5F17000B0FA80F04009802D08BF02205F
:1032700001E000BF002042F20001C4F202010A682E
:1032800022F0070202440A60096801F00701814246
:1032900040F08480306840F0080030603068D4E945
:1032A000071220F0F00010433060706820F47F4077
:1032B00040EA012070605EE0FFF792F9B0F5007F10
:1032C0007FF4E8AD812D47D30120A02D88BF0220D7
:1032D00043E000BFF0684FF6FC71CFF6EE610840A6
:1032E000F060002003B0BDE8F08300BFFFF78AF86C
:1032F000054641F2883700BFD6F89000800707D511
:10330000FFF780F8401BB8424FF00300F4D9ACE05F
:10331000B8F1000F3FF502AEB06D20F08050B065FF
:10332000FCE500BFFFF76EF8054600BF306880037C
:103330007FF5BDADFFF766F8401B64284FF0030032
:10334000F4D992E0A5F17000B0FA80F04009802D28
:1033500008BF022001E000BF002042F20001C4F2D9
:1033600002010A6822F0070202440A60096801F0BB
:103370000701814212D1B068F16810F00C0005D04D
:103380000C282BD101F00301012927D1316809074D
:1033900008D4D6F89410090A06E000BF012003B053
:1033A000BDE8F0833168090945F2500201F00F01D0
:1033B000C0F6000252F8211000280A4618BF002269
:1033C0000C2837D1F06800F00300022810D0032841
:1033D00004BF41F20021C0F27A010DE004281FD0A1
:1033E000082823D141F20022C0F27A0222E000BF75
:1033F00042F20041C0F2F401F068F268C0F302103A
:10340000C2F306225143F2680130B1FBF0F0C2F37F
:103410004161022202EB4101B0FBF1F20AE000BF80
:1034200042F20042C0F2F40204E000BF0022002198
:103430000C28C7D0B06845F23801C0F30310C0F6BD
:103440000001085C00F01F0022FA00F140F20400C5
:10345000C2F2000040F208020068C2F200021160ED
:10346000FEF7FCFF00283FF496AC03B0BDE8F08304
:10347000F06848F28C01CFF69D1104F12C0700EAA8
:10348000010C8ECFD4E90F546FF00F0040F2000E04
:1034900000EB0210CFF6E07E41EA0C010EEA055582
:1034A0004FF07E420843A5F5001502EA046240EAA7
:1034B000032002F17E420EF5F014284304EA473758
:1034C00010433843F060306840F080703060F0683E
:1034D00040F08070F060FEF795FF04463068800190
:1034E00008D4FEF78FFF001B02284FF00300F5D928
:1034F000BBE700BF002003B0BDE8F083411E002001
:10350000B0EB116F1CBF012070474EF21002CEF2DB
:10351000000251604EF62351CEF20001F0230B70F1
:10352000072190601160704710B5C0B10446C06FAC
:1035300028B9002084F87800204600F025F82420DF
:10354000E0672068616A026822F00102026011B13E
:10355000204600F071FA204600F098FB10B10120DF
:1035600010BD00BF2168486820F49040486088681A
:1035700020F02A008860086840F0010220460A60B6
:10358000BDE8104000F0CEBA10B5A8B0044601A8BE
:1035900004308421FCF76AFF206844F20041C4F241
:1035A0000001884202D028B010BD00BF022401A84B
:1035B0000194FFF71DF8002818BFFEF73BF941F210
:1035C0004C00C4F20200C16841F40031C160C1681E
:1035D00001F4003123912399016841F00101016058
:1035E000006823A900F00100239023980C20CDE966
:1035F00023040020259003202690072027904FF0D9
:103600009040FEF70BFE28B010BD00002DE9F04100
:103610000446C06F20281CBF0220BDE8F0810D4683
:1036200000294FF0010000F0B6801646002A08BFBE
:10363000BDE8F0810020C4F8840021209846E067AE
:10364000FEF7E0FEA4F85060A4F85260A1680646B8
:10365000B1F5805F02D1206900286BD02F4600258C
:10366000B4F8520000286BD018F101001CD0B8F15A
:10367000000F3DD121680BE017F8010B0885B4F865
:1036800052000138A4F85200B4F85200002858D073
:10369000C869000640F17A80002FEDD135F8020BA1
:1036A00000276FF35F20E9E7216802E0C8690006A0
:1036B00009D4C869000606D4C86900065CBFC86999
:1036C0005FEA0060F2D51FB117F8010B05E000BFFB
:1036D00035F8020B00276FF35F200885B4F852001D
:1036E0000138A4F85200B4F852000028E1D128E0D3
:1036F000216800BFC869000608D4FEF783FE801B5E
:10370000404545D821680868F4E700BF17B117F8AD
:10371000010B04E035F8020B00276FF35F200885EA
:10372000B4F852000138A4F85200B4F8520000284E
:10373000E0D106E00027B4F8520000287FF494AFEF
:103740002168C86940061FD4B8F1000F1ED018F1D7
:1037500001000FD1C869400616D4C869400613D4C9
:10376000C869400610D4C86940064FF00000F1D582
:103770000FE000BFFEF746FE801B404508D82068DA
:103780000168C0694006F5D5002002E0FEF73AFE68
:1037900003202021E167BDE8F0810000FEE7000082
:1037A000FEE70000FEE7000070470000F0B581B0C2
:1037B00041F20007C4F20207FA680D469107044679
:1037C00014D0F868216800F0030088424FF001002F
:1037D00040F09180002900F08E80F8686168C0F3A5
:1037E0000210013088420BD120E000BF206803287E
:1037F0000AD002283ED0012802D1396889070AD4AC
:10380000012001B0F0BD00BF396889035CBF396891
:103810005FEA4131F4D5F96862686FF00F0321F077
:10382000730103EB021211430843F860386820F07B
:1038300080603860FEF7E6FD064600BF386800018C
:1038400006D5FEF7DFFD801B0228F7D94AE000BF4E
:10385000012D13D025BB386948F2FF01CFF6FD7169
:103860000840D4E902120023CFF6FE7303EA423285
:1038700024E000BF39684905C2D5CCE748F2FF0112
:103880003869CFF6FF112269002301F1B461CFF648
:10389000E0730840A16803EA0252A2F500120DE0AD
:1038A000386948F2FF016269CFF6FF114FF07E439D
:1038B0000840A16803EA026202F17E4240EA012068
:1038C00010433861386840F080603860FEF79AFD38
:1038D000054600BF3868000108D4FEF793FD401B81
:1038E0000228F7D9032001B0F0BD00BFA0693969F3
:1038F00008433861002001B0F0BD0000F0B581B090
:1039000041F20007C4F20207FA680D469107044627
:1039100012D0F868216800F0030088424FF00100DF
:1039200079D1002977D0F8686168C0F302100130BE
:1039300088420BD120E000BF206803280AD002286B
:103940003ED0012802D1396889070AD4012001B08C
:10395000F0BD00BF396889035CBF39685FEA413157
:10396000F4D5F96862686FF00F0321F0730103EB7F
:10397000021211430843F860386820F08050386024
:10398000FEF740FD064600BF3868800006D5FEF70A
:1039900039FD801B0228F7D934E000BF7969A0689F
:1039A0004FEA002085B148F2FF02CFF6FF12114026
:1039B00022694FF07E4303EA026202F17E420EE08A
:1039C00039684905C2D5CCE748F2FF02CFF6FD724F
:1039D0001140E2680023CFF6FE7303EA4232084347
:1039E00010437861386840F080503860FEF70AFD77
:1039F000054600BF3868800008D4FEF703FD401B71
:103A00000228F7D9032001B0F0BD00BF60697969D1
:103A100008437861002001B0F0BD0000704700004D
:103A2000FEF7F6BC4EF68850CEF20000016841F475
:103A30007001016070470000416A0A070ED4CA078E
:103A400017D18A0720D44A0729D4CA0632D48A0655
:103A50003BD480B54A0644D458E000BF0268D0F891
:103A600034C0536823F4004343EA0C035360CA078D
:103A7000E7D00268D0F828C0536823F4003343EA43
:103A80000C0353608A07DED50268D0F82CC0536857
:103A900023F4803343EA0C0353604A07D5D5026808
:103AA000D0F830C0536823F4802343EA0C035360FA
:103AB000CA06CCD50268D0F838C0936823F4805386
:103AC00043EA0C0393608A06C3D50268D0F83CC071
:103AD000936823F4005343EA0C03936080B54A06CD
:103AE00014D50268D0F840C05368BCF5801F23F499
:103AF000801343EA0C03536008D1D2F804C0D0F815
:103B000044E02CF4C00343EA0E035360090658BF97
:103B100080BD0168806C4A6822F40022104348602E
:103B200080BD0000B0B582B004460020C4F8840017
:103B3000FEF768FC216805460A68120735D56FF064
:103B40007E4C20464FF4001100222B46CDF800C0D9
:103B500000F0C6F940B300BF206850E8000F2168AC
:103B600020F0800041E80002DAB1206850E8000F40
:103B7000216820F0800041E8000292B1206850E8FE
:103B8000000F216820F0800041E800024AB120685F
:103B900050E8000F216820F0800041E80002002A70
:103BA000DAD12020E0675FE021680868400761D52E
:103BB0006FF07E4C20464FF4800100222B46CDF85A
:103BC00000C000F08DF9002854D000BF206850E8F4
:103BD000000F216820F4907041E80002E2B12068F3
:103BE00050E8000F216820F4907041E800029AB17B
:103BF000206850E8000F216820F4907041E800022E
:103C000052B1206850E8000F216820F4907041E81C
:103C10000002002ADAD100BF206850E8020F2168B4
:103C200020F0010041E80202DAB1206850E8020FFA
:103C3000216820F0010041E8020292B1206850E8BA
:103C4000020F216820F0010041E802024AB1206819
:103C500050E8020F216820F0010041E80202002A2A
:103C6000DAD12020C4F880000320002184F87810E5
:103C700002B0B0BD2020E067C4F8800000202066BC
:103C80006066002184F8781002B0B0BDB0B505467A
:103C900005F108041ECC0068194341EA0403D5F875
:103CA0001CE0046846F6F311CEF6FF71214019437B
:103CB00041EA0E010160416848F2000C21F44051D4
:103CC00011434160AA69C4F2000C60451CBF296A17
:103CD0000A438168102321F430611143816044F666
:103CE000FF71C4F20001884218DC44F20041C4F2C2
:103CF0000001884228D044F60001C4F20001884245
:103D00002AD044F60041C4F20001884242D141F277
:103D10008801C4F2020109688B0933E045F2000111
:103D2000C4F2000188421FD0604525D043F600014F
:103D3000C4F2010188422DD141F28801C4F202018E
:103D40000B6863A222E000BF41F28801C4F20201C5
:103D500009688B0816E000BF41F28801C4F2020135
:103D600009680B090EE000BF41F28801C4F20201AC
:103D700009680B0A06E000BF41F28801C4F20201A3
:103D800009688B0A45F28002C0F6000203F00301C5
:103D900052F82130604542F20040C0F2F40015D0E4
:103DA000BEF5004F22D1082B4FF0010100F28B80AD
:103DB000DFE803F006505A8954898989580000BF0A
:103DC000FEF746FF00284FD179E000BF082B4FF0E7
:103DD000010100F27880DFE803F0057621761B769A
:103DE00076761F00FEF734FFC0B968E0082B4FF06D
:103DF000010100F26880DFE803F0054B55664F666D
:103E000066665300FEF724FF00284BD157E000BF41
:103E1000FEF74AFF10B952E04FF400406A6802EB27
:103E2000420188424FF001014DD3130398424AD812
:103E3000010E000210EB520041F100010023FCF7DB
:103E40007FFA4FF60052A0F54071C0F20F02914286
:103E500033D337E0FEF712FF30B930E0FEF724FF2E
:103E600010B92CE04FF4004069684A0802EB4000AA
:103E7000B0FBF1F04FF6EF72A0F11001914221D8A2
:103E80004FF6F0710140C0F34200084415E000BF56
:103E9000FEF7F4FE30B912E0FEF706FF10B90EE0AF
:103EA0004FF4004069684FF6EF7200EB5100B0FB31
:103EB000F1F0A0F11001914204D82968C8600021F6
:103EC00001E000BF012100220846AA66EA66B0BDF3
:103ED00001000000040000000200000008000000D3
:103EE0002DE9F041804600681546C2690E46114032
:103EF000891BB1FA81F14909A94223D1069C2CB34F
:103F0000611C29D1C1693140891BB1FA81F149098C
:103F1000A94217D1C1693140891BB1FA81F1490920
:103F2000A9420FD1C1693140891BB1FA81F1490918
:103F3000A94207D1C1693140891BB1FA81F1490910
:103F4000A942DFD00020BDE8F08100BFFEF75AFA99
:103F50000320BDE8F08100BF1F4607E0C069304084
:103F6000801BB0FA80F04009A842EBD1FEF74AFA74
:103F7000C01BA04200F2B080D8F8000001684907D9
:103F8000ECD5402EEAD0802EE8D0C169090700F1B7
:103F9000A780C1690905E1D54FF400610162D8F835
:103FA000000050E8000FD8F8001020F4907041E8AD
:103FB0000002002A43D0D8F8000050E8000FD8F8DB
:103FC000001020F4907041E80002C2B3D8F800005D
:103FD00050E8000FD8F8001020F4907041E800027B
:103FE0006AB3D8F8000050E8000FD8F8001020F4A9
:103FF000907041E80002002AD1D120E0D8F80000FA
:1040000050E8020FD8F8001020F0010041E8020249
:104010000AB3D8F8000050E8020FD8F8001020F0DA
:10402000010041E80202B2B1D8F8000050E8020FE6
:10403000D8F8001020F0010041E802025AB1D8F887
:10404000000050E8020FD8F8001020F0010041E80D
:104050000202002AD2D1D8F8600001282CD1D8F869
:10406000000050E8000FD8F8001020F0100041E8E0
:1040700000020AB3D8F8000050E8000FD8F800108A
:1040800020F0100041E80002B2B1D8F8000050E87A
:10409000000FD8F8001020F0100041E800025AB1DB
:1040A000D8F8000050E8000FD8F8001020F01000F9
:1040B00041E80002002AD2D120200021C8F8800067
:1040C000C8F86010C8F86810C8F88400032088F8A1
:1040D0007810BDE8F08100BF0320BDE8F08100BF8B
:1040E00008210162D8F8000050E8000FD8F800104D
:1040F00020F4907041E80002002A44D0D8F8000073
:1041000050E8000FD8F8001020F4907041E8000249
:10411000CAB3D8F8000050E8000FD8F8001020F417
:10412000907041E8000272B3D8F8000050E8000F28
:10413000D8F8001020F4907041E80002002AD1D194
:1041400021E000BFD8F8000050E8020FD8F80010B6
:1041500020F0010041E802020AB3D8F8000050E85C
:10416000020FD8F8001020F0010041E80202B2B1BD
:10417000D8F8000050E8020FD8F8001020F0010035
:1041800041E802025AB1D8F8000050E8020FD8F80E
:10419000001020F0010041E80202002AD2D1D8F834
:1041A000600001282CD1D8F8000050E8000FD8F8A2
:1041B000001020F0100041E800020AB3D8F8000017
:1041C00050E8000FD8F8001020F0100041E800027D
:1041D000B2B1D8F8000050E8000FD8F8001020F075
:1041E000100041E800025AB1D8F8000050E8000F72
:1041F000D8F8001020F0100041E80002002AD2D1C7
:104200002020C8F8800000200821C8F86000C8F805
:104210006800C8F8841088F878000120BDE8F081B3
:10422000FEE7000098B0FEF701F907A8043024214A
:10423000FCF71CF94FF40070FEF78CF920B1EFF396
:10424000108072B6FEE700BF4FF480710A91102112
:104250000B91012113910A2102201491072107904B
:10426000CDE91100CDE91510179007A8FEF77EFDE6
:1042700020B1EFF3108072B6FEE700BF0F2002906E
:1042800003200390002402A80421CDE904440694ED
:10429000FEF7A0FB20B1EFF3108072B6FEE700BF7F
:1042A00041F24C00CDE90A44C4F20200016840F634
:1042B000000A41F0040101600168002201F00401DC
:1042C000029102990168C4F6000A41F08001016080
:1042D0000168202601F0800102910299016841F0F5
:1042E00001010160016801F0010102910299016878
:1042F00041F0020101600068202100F002000290FC
:1043000002984FF09040FEF777F84FF4005007AD59
:10431000CDE90704504629460994FDF77FFF07962B
:1043200001264FF090402946CDE908640A94FDF734
:1043300075FF40F2DC0044F20041C2F20000C4F21A
:1043400000010C234FF4E13280E81600C0E9034479
:10435000C0E90534C0E907444462FFF7E5F828B135
:10436000EFF3108072B600BFFEE700BF40F27007A7
:10437000C2F200070021C5F204013846002440F8CB
:10438000081F0421CDE90344C0E90144C0E9034406
:1043900041610483C66180F82040C0E90A4480F886
:1043A0003040446380F83840FDF768FC20B1EFF3FB
:1043B000108072B6FEE700BF07F1080502A9284683
:1043C0000294FDF73DFA28B1EFF3108072B600BFFA
:1043D000FEE700BF2020C1F2F040079006207F21B9
:1043E000089000200A9104210990CDE90B1007A93B
:1043F0002846FDF789FA28B1EFF3108072B600BFA6
:10440000FEE700BF47A000F0DBF84BA000F0D8F8B3
:1044100050464FF40051FDF7E9FF40F20C049FEDC8
:104420005A8A9FED5A9A9FED5AAA9FED5ABA9FED6C
:104430005ACAC2F2000442F6DF6BB6EE00DAB1EE01
:1044400004EA0FF2581920701DE000BF8FEE0B0A2E
:10445000B1EEC00A10EE100A20EE0C0AB4EE4E0ABD
:1044600030EE0DFAF1EE10FAB8BFB0EE4DFA00F0F2
:10447000E3FC0246BDEECF0A48460B468DED000A2E
:1044800000F09EF87E6050464FF40051FDF7AEFFFD
:104490000646A8B92078012812D138782021B0FA30
:1044A00080F042094FF090403A70FDF7A5FF387850
:1044B0002CA100282AA008BF01462BA000F080F8FC
:1044C0002670FDF79FFF79680646401AB0F5FA6F2F
:1044D000D9D34FF00008B0EE48FA06E02846FDF7C1
:1044E00043FED84508F10108B0D22846FDF7CAFDC1
:1044F0000028F6D128460A21FDF71AFD0028EDD143
:104500002846FDF7B7FBA0F6084000EE100AB8EE0B
:10451000C00A20EE090A80EE0A0A20EE000A30EEF8
:104520000FFADBE753797374656D207374617274ED
:1045300065642E0D0A000000427574746F6E2D3E86
:104540004C4544202B205A4D5054202B20524D5383
:10455000202B20554152542064656D6F0D0A0000D8
:104560004F4646004F4E0000427574746F6E2070C7
:104570007265737365642E204C4544206973206E08
:104580006F772025730D0A0000000000333353407D
:1045900000F07F4500803B46008039434D6F6475D5
:1045A0006C652056726D733A20252E336620562096
:1045B0007C204C696E653A20256420560D0A000067
:1045C00083B010B5A1B0844623A80EC023AB01A8C8
:1045D0008021624600938024FBF72AFF01280CDB30
:1045E0008028B8BF044640F2DC00A2B2C2F200004C
:1045F00001A94FF0FF33FFF709F821B0BDE81040E3
:1046000003B070475FEA400C08BF91F0000F4FEA1B
:104610008C234FEAC12243EA51514FEA1C5018BF84
:1046200000F5F0404FEA300018BF41F000415FEA6A
:104630006C5C00F02980BCF1FF3F08BF40F0804077
:104640007047130C06BF12044FF0100C4FF0000C13
:10465000130E04BF12020CF1080C130F04BF120159
:104660000CF1040C930F04BF92000CF1020CD30F59
:1046700004BF52000CF1010C11464FF00002A0F1F2
:104680001F00A0EB0C00704711F0004F08BF7047EF
:1046900031F000413FF4D5AF0B0C06BF09044FF0D9
:1046A000100C4FF0000C0B0E04BF09020CF1080CAB
:1046B0000B0F04BF09010CF1040C8B0F04BF890020
:1046C0000CF1020CCB0F04BF49000CF1010CCCF132
:1046D000200322FA03F341EA030102FA0CF2A0EBF1
:1046E0000C0000F10100704723F07F4720F07F4C61
:1046F00080EA030000F00040ACEB070303F57C53B5
:1047000003F1FF032DE9804909B44FEA144324EA79
:1047100003484FEA154B25EA0B4E0FF2042606EB31
:1047200013273E7803FB0667C7F5000707FB06F66D
:104730004FEAD64606F102064FEA543707FB066CED
:10474000CCF1005C4FEA1C472CEA074C0CFB06F549
:1047500007FB06F404EB15464FEA961649085FEA94
:10476000320234BF00204FF000404FEAD13706FB41
:1047700007FC4FEA1C4C0CFB0BF7D21B03FB0CF79E
:1047800061EB07010CFB0EF7B0EB074072EB174231
:104790000CFB08F734BFA2EB0742B2EB074261EB18
:1047A00017414FEA0C444FEA910706FB07FC4FEA1A
:1047B0001C4C0CFB0BF7B0EBC74072EB573203FB02
:1047C0000CF734BFA2EBC742B2EBC74261EB5731E3
:1047D0000CFB0EF7B0EBC70072EB57720CFB08F73F
:1047E00034BFA2EBC702B2EBC70261EB57714FEACD
:1047F000816141EA92114FEA826242EA90124FEAE5
:10480000806004EBCC04039F4FEAD13706FB07FC22
:104810004FEA1C4C0CFB0BF7D21B03FB0CF761EBB4
:1048200007010CFB0EF7B0EB074072EB17420CFBD5
:1048300008F734BFA2EB0742B2EB074261EB174126
:104840004FEA8C5504EB9C244FEA910706FB07FCCA
:104850004FEA1C4C0CFB0BF7B0EBC74072EB573226
:1048600003FB0CF734BFA2EBC742B2EBC74261EBCC
:1048700057310CFB0EF7B0EBC70072EB57720CFB15
:1048800008F734BFA2EBC702B2EBC70261EB577166
:104890004FEA816141EA92114FEA826242EA901244
:1048A0004FEA806015EB4C2544F100044FEAD13704
:1048B00006FB07FC4FEA1C4C0CFB0BF7D21B03FB5F
:1048C0000CF761EB07010CFB0EF7B0EB074072EB46
:1048D00017420CFB08F734BFA2EB0742B2EB0742CA
:1048E00061EB17414FEA813141EA92414FEA82324E
:1048F00042EA90424FEA80304FEA0C7615EB1C15E5
:1049000044F1000448EA03434EEA0B484FF0000E1E
:10491000B2EB080C71EB030724BF624639464EEB3D
:104920000E0E4FF0000B0018524149414BEB0B0BA0
:10493000B2EB080C71EB03077BF1000B24BF62465E
:1049400039464EEB0E0E4FF0000B00185241494114
:104950004BEB0B0BB2EB080C71EB03077BF1000B7D
:1049600024BF624639464EEB0E0E51EA020718BFCD
:1049700046F0010616EB0E7655F1000254F10001E7
:1049800003D5BDE88901BDE80088BDE88901BDE81F
:104990000048B619524141EB0101A3F101037047F0
:1049A00080807F7E7D7C7B7A79787776767574736C
:1049B000727171706F6E6E6D6C6C6B6A6A6968682B
:1049C000676666656464636362616160605F5F5EC1
:1049D0005E5D5D5C5C5B5B5A5A5959585857575637
:1049E000565555555454535352525251515050509C
:1049F0004F4F4F4E4E4D4D4D4C4C4C4B4B4B4A4AEE
:104A00004A49494948484847474747464646454531
:104A1000454444444443434343424242424141416A
:104A20009C46002B30D477002BD04FEA37071CB5BB
:104A300003B44FF010004FF01001BAF1000F06D090
:104A4000BCF1000FDCBF40F0080040F008014FF05F
:104A500000000FBCBDE810400BF1010BBBF1010FD2
:104A600008BF5FEA170722BF12F1010211F101012D
:104A70004FF0004143F1000300F0004043EA000022
:104A80007047F9D35708D0E746EA06464FEA16467C
:104A900013F1400F1FDD13F1200FDFBF16430A464D
:104AA000002120335B42BED0C3F1200746EA064610
:104AB0004FEA164602FA07F746EA070622FA03F219
:104AC000C3F1200701FA07F742EA070221FA03F1CE
:104AD0004FF00003A7E746EA020646EA06464FEA19
:104AE000164646EA0106BCBF46EA0646360C4FF0BB
:104AF00000034FF000024FF0000194E72DE9804CD5
:104B000070B49A46934691E8380007C831EA400CE1
:104B100048BF34EA430C03D5FFF7E6FDFFF780FFFB
:104B2000F0BCBDE8008C2DE9804C70B49A469346E9
:104B300091E8380007C810F0804F08BF13F0804F8D
:104B400003D100F005F8FFF76BFFF0BCBDE8008C67
:104B500020F07F4723F07F4C80EA030000F0004004
:104B600007EB0C03A3F57C53A3F1FE0392F0000FB7
:104B700000F0B38095F0000F00F077802DE9014937
:104B80004FEA114021EA00484FEA144624EA06475A
:104B900000FB06FC08FB06F607FB08F818EB0648C6
:104BA0004CEB164C00FB07F718EB07484CEB174093
:104BB0004FEA124B22EA0B4E4FEA154625EA06470A
:104BC0000BFB06FC0EFB06F607FB0EFE1EEB064E6D
:104BD0004CEB164C0BFB07F71EEB074E4CEB174B41
:104BE00018EB0B0840F1000018EB0E0B58EB000817
:104BF00040F100008F1A4FF000014FF000063CBF5B
:104C0000C943661B14BFB5EB040C00213CBFC9436C
:104C1000F61B4FEA174427EA04454FEA1C472CEAE3
:104C2000074C04FB076205FB07F70CFB05F616EBC8
:104C3000074642EB174204FB0CFC16EB0C4642EB1A
:104C40001C421BEB060658EB020241414EEA8E0E57
:104C500046EA9E0601D5BDE80189B619524141EBED
:104C60000101A3F10103BDE801894FEA144524EADB
:104C700005464FEA114721EA074C05FB07F406FBFE
:104C800007F70CFB06F111EB074144EB174405FB5A
:104C90000CFC11EB0C4144EB1C444FEA124722EA96
:104CA000074C05FB07F206FB07F70CFB06F616EBB5
:104CB000074642EB174205FB0CFC16EB0C4642EB99
:104CC0001C456A1854F1000148BF7047B61952419B
:104CD00041EB0101A3F10103704795F0000F37D0BC
:104CE0004FEA114221EA02464FEA144724EA074CF0
:104CF00002FB07F106FB07F70CFB06F414EB074475
:104D000041EB174102FB0CFC14EB0C4441EB1C4142
:104D10004FEA154725EA074C02FB07F506FB07F7A4
:104D20000CFB06F616EB074645EB174502FB0CFCA1
:104D300016EB0C4645EB1C42121951F1000148BF1D
:104D40007047B619524141EB0101A3F101037047CD
:104D50004FEA144524EA05464FEA114721EA074C79
:104D600005FB07F106FB07F70CFB06F212EB074207
:104D700041EB174105FB0CFC12EB0C4251EB1C41C3
:104D80004FF0000648BF7047921841EB0101A3F1B4
:104D90000103704703B401984100009850EAC12014
:104DA00018BF04204A0D18BF40F0010040F2FF7206
:104DB000B2EB515F08BF40F00200012808BF052098
:104DC00002B0704730380A2801D201207047002015
:104DD0007047000010B500290AD00878002807D0D5
:104DE00005487844FCF798FB002801D0002010BD4E
:104DF0000248784410BD0000CE020000C602000048
:104E000010B500290AD00878002807D00548784452
:104E1000FCF782FB002801D0002010BD0248784436
:104E200010BD0000BE020000B60200000808A0F598
:104E300000114FEA3101704743004FEAD30C4FEAAB
:104E40003C0C43401FBF40070CF1605113F0FE4F74
:104E500070471CF0006F03D10CF000410020704738
:104E60000CF0004343EA507040EACC0010B500F06B
:104E70000EF800BF000000924FEA0001FFF7D6BF16
:104E80004FF00041A1F500214FF0000070470EF1F6
:104E9000020E2EF0030E5EF8044B244204D44FEAB7
:104EA0004102B2F17F4F11D84FEA4003B3F17F4F77
:104EB0000CD80ED14FEAD07C0CEB4C0C0CF1020C50
:104EC000B2F17F4F08BF4CEBD17C04E04FF0080CEF
:104ED00001E04FEAD17C0CEB4C0324FA03F404F01C
:104EE0000704B4F1040C06D20EEB840CBDE81040AC
:104EF0004CF0010C6047DFE80CF0070802024FF0AD
:104F00000040A0F5800010BD0846420018BFD2F155
:104F1000807288BF00F0004010BDF1EE100A4FF61D
:104F2000FF71C0F2C03120EA010040F04070E1EEB4
:104F3000100A7047FBF7F5BEFCF72CB80000000024
:104F400000000000303132333435363738394142D1
:104F500043444546403058003031323334353637DB
:104F60003839616263646566403078000400000887
:104F7000000000000000000200010000103031328B
:104F8000333435363738396162636465667870006A
:104F9000303132333435363738394142434445466F
:104FA0005850000002400000000000A00000000077
:104FB00005400000000000C8000000000C40000098
:104FC0000000409C00000000194000000020BCBE12
:104FD0000000000034400000BFC91B8E0000000428
:104FE000B5400000504BCFD06607E2CF0100000073
:104FF0006C4100003E8251AADFEEA73401000000A0
:10500000D9420000DCB5A0E23A301F97FFFFFFFF56
:10501000B4450000FD25A0C8E9A3C14FFFFFFFFF75
:10502000FF3F00000000008000000000FF3F000084
:1050300000000080000000000000000000000000F0
:10504000010203040607080900000000010203042E
:10505000A0860100400D0300801A060000350C00F8
:1050600040420F0080841E0000093D0000127A00BB
:105070000024F40000366E010048E801006CDC02F8
:105080000000000004000000020000000800000012
:10509000E05100080000002010000000EC010008B2
:1050A000F051000810000020580700000C02000812
:1050B0001C00000043000000F8FFFFFF0C00000090
:1050C0000E0000000F0000002E0000001001000084
:1050D00043000000F8FFFFFF0040404040404040D8
:1050E00040404141414141404040404040404040BB
:1050F000404040404040404040050202020202025F
:1051000002020202020202020220202020202020AD
:1051100020202002020202020202909090909090C1
:10512000101010101010101010101010101010107F
:1051300010101010020202020202888888888888F3
:1051400008080808080808080808080808080808DF
:1051500008080808020202024000000000000000E7
:10516000000000000000000000000000000000003F
:10517000000000000000000000000000000000002F
:10518000000000000000000000000000000000001F
:10519000000000000000000000000000000000000F
:1051A00000000000000000000000000000000000FF
:1051B00000000000000000000000000000000000EF
:1051C00000000000000000000000000000000000DF
:1051D00000000000000000000000000000000000CF
:1051E000010000001000000000093D000100000067
:040000050800018965
:00000001FF
